:020000040800F2
:1000000020070020890100089101000893010008E1
:100010009501000897010008990100080000000000
:100020000000000000000000000000009B0100082C
:100030009D010008000000009F010008A1010008C8
:10004000A3010008A3010008A3010008A301000800
:10005000A3010008A3010008A3010008A3010008F0
:10006000A3010008A3010008A3010008A3010008E0
:10007000A3010008A3010008A3010008A3010008D0
:10008000A3010008A3010008A3010008A3010008C0
:10009000A3010008A3010008A3010008A3010008B0
:1000A000A3010008A3010008A3010008A3010008A0
:1000B000A3010008A3010008790B0008A3010008B0
:1000C000A3010008A3010008A3010008A301000880
:1000D000A3010008A3010008A3010008A301000870
:1000E000A3010008A3010008A301000800F002F822
:1000F00000F03AF80AA090E8000C82448344AAF188
:100100000107DA4501D100F02FF8AFF2090EBAE885
:100110000F0013F0010F18BFFB1A43F0010318473B
:1001200090310000B0310000103A24BF78C878C187
:10013000FAD8520724BF30C830C144BF04680C60ED
:10014000704700000023002400250026103A28BF35
:1001500078C1FBD8520728BF30C148BF0B60704739
:100160001FB51FBD10B510BD03F06BF81146FFF7AA
:10017000F7FF00F0B1F903F089F803B4FFF7F2FFDD
:1001800003BC03F08DF80000094880470948004788
:10019000FEE7FEE7FEE7FEE7FEE7FEE7FEE7FEE737
:1001A000FEE7FEE704480549054A064B7047000094
:1001B0008F2C0008ED0000082001002020070020FF
:1001C000200300202003002010B52021F74801F073
:1001D000C8F94FF40041F64801F0C3F91021F34883
:1001E00001F0BFF9F348006800F07EFE0821EF48F7
:1001F00001F0B7F9EF48006800F076FE4FF40071A7
:10020000EA4801F0AEF9EB48006800F06DFE01210C
:10021000E64801F0A6F9E748006800F065FE4FF4F3
:100220008071E24801F09DF9E248006800F05CFE50
:100230008021DE4801F095F9DE48006800F054FEA8
:100240000221DA4801F08DF9DA48006800F04CFE2E
:100250000221D64801F087F9D648006800F044FE34
:100260000421D24801F07DF9D248006800F03CFE3C
:100270000421CE4801F077F910BD10B5CE480068D2
:10028000012846D10821C94801F06BF9CB4800F09C
:100290002BFECB480068802806DDCA48006810287D
:1002A00002DA0120C8490860C748006858B9082127
:1002B000BE4801F058F9C14800F016FE4FF4007135
:1002C000BA4801F04EF9BD4800F00EFEBD48006886
:1002D000802806DDBA480068102802DA0220BA49F0
:1002E0000860B948006820B94FF40071AF4801F0C8
:1002F0003AF9B5480068012803D1C103AC4801F0C0
:1003000030F9B1480068022803D12021A74801F044
:1003100028F9A948006818B90821A44801F021F972
:1003200010BD70473EB504460121042001F03EFB9C
:10033000684601F099FF4FF4F070ADF8000001201D
:10034000ADF804006946A14801F062FC01221146A3
:100350009E4801F0D4FF01219C4801F0B5FF1E200A
:100360000121814042094FF0E02303EB8202C2F8F1
:10037000001100BF3EBD00B587B0012140F204600E
:1003800001F007FB06A801F0CAF800208DF81B0059
:100390003F20ADF8180002208DF81A0006A9844805
:1003A00001F034F80020019001208DF808000020B1
:1003B0008DF809004FF46020039000200490012084
:1003C0008DF8140001A9824800F0BFFD012180488A
:1003D00000F0E7FD7E4800F006FE00BF7C4800F01C
:1003E00007FE0028FAD17A4800F00CFE00BF7848DA
:1003F00000F00DFE0028FAD1019001208DF80800D0
:1004000000208DF809004FF4602003900020049034
:1004100001208DF8140001A96E4800F096FD01211D
:100420006C4800F0BEFD6B4800F0DDFD00BF694880
:1004300000F0DEFD0028FAD1664800F0E3FD00BFC1
:10044000644800F0E4FD0028FAD107B000BD08B50B
:1004500001211D2001F09DFA01215F4801F0A5F85E
:10046000684601F05CF810208DF8030040F2FF3080
:10047000ADF8000069464D4800F0C8FF10208DF827
:100480000300C002ADF800006946494800F0BEFF15
:1004900048208DF803004FF47050ADF80000694615
:1004A000424800F0B3FF48208DF803004FF440406D
:1004B000ADF800006946494800F0A8FF10213B480C
:1004C00001F051F84FF40041394801F04CF8202177
:1004D000364801F048F808BD1FB54148406820F48F
:1004E00080303F4948600846006820F0807008600E
:1004F0000846406820F4701048600846406840F4A0
:10050000801048600846006840F08070086000BFB6
:100510003348006810F0007FFAD03148406820F07E
:1005200003002F4948600846406840F002004860D8
:1005300000BF2B48406800F00C000828F9D128487B
:10054000406820F0F000264948600846406848604E
:1005500002F01CFC23A002F06DFDFFF778FFFFF70F
:100560000AFF0020FFF7DEFE1021104800F0F9FF1F
:100570004FF40041194800F0DAFF0F490860FFF717
:100580007CFEF8E24FF48051084800F0D0FF08B933
:10059000012000E00020154908604FF40051034895
:1005A00000F0C5FF08B9012023E021E0000C014064
:1005B000000801400000002058000020801A0600BA
:1005C00038000020340000206000002000080040B7
:1005D00000240140002801400004300000100140C8
:1005E000001002403030310D0A0000007C00002075
:1005F0000020FE490860FE480068012805D1FD483A
:10060000006810B90120FC490860F848006801281A
:1006100005D1FA48006810B90120F9490860F4488A
:100620000068F4490860F1480068F44908604FF434
:100630008051F44800F07BFF40B14FF40051F14885
:1006400000F075FF10B10020EF490860EF48006826
:10065000202878DAEE4800682028FADAED480068A9
:100660002028F6DA4FF48061E64800F060FF0028A9
:1006700069D04FF40061E34800F059FF0028F7D03B
:10068000E548006800287FD1DB48006814282CDB8F
:100690004FF48041E14800F04AFF08BBDE480068A3
:1006A000F0B9D9480068D8B90120DB490860DC49B5
:1006B00008600020DB4908600821D24800F053FFA1
:1006C0004FF40071CF4800F04EFF642000F00CFCA6
:1006D000D5480068012804D10221CA4800F041FF32
:1006E00003E00421C74800F03CFFC5480068142817
:1006F0002EDB4FF48041C94800F019FF10BBC648FB
:100700000068F8B9C0480068E0B90120C249086033
:100710000220C34908600020C24908600821B94886
:1007200000F021FF4FF40071B64800F01CFF642078
:1007300000F0DAFBBC480068012805D10421B1486B
:1007400000F00FFF04E01FE00221AE4800F009FFB7
:10075000B1480068C0B9B5480078012803D1082124
:10076000A84800F0FEFEB148007802280CD1AE483F
:100770000068012804D14102A24800F0F2FE03E023
:100780000821A04800F0EDFEA5480068012817D117
:10079000A1480068002813DDA5490868C11700EBCF
:1007A0005171C910B0EBC10105D14FF40041A1480E
:1007B00000F0D7FE04E04FF400419E4800F0D3FE65
:1007C00097480068022815D193480068002811DD79
:1007D00097490868C11700EB5171C910B0EBC1010E
:1007E00004D12021874800F0BCFE03E02021854889
:1007F00000F0B9FE00209049086090480068802809
:100800000ADD8F480068102806DA01200860874951
:10081000087000208B4908608948006880280BDD3B
:1008200086480068102807DA0220834908607F495B
:10083000087000208349086081480068B0F5907F07
:1008400011DD7E480068B0F5907F0CDD7D480068C2
:1008500010B901207B4908606F48006830B1002062
:100860007849086002E00020764908607248006814
:1008700088B94FF48071634800F075FE80216148AB
:1008800000F071FE4FF400416A4800F06CFE202138
:100890005C4800F068FE6848006801280CD1C1037C
:1008A000644800F05EFE2021564800F05CFE4FF4E4
:1008B0008071544800F055FE5F48006802280CD152
:1008C0002021504800F04DFE4FF40041594800F0FF
:1008D0004AFE80214B4800F044FE5A480068002838
:1008E0001ADD5349086800EBD0714910B0EB4101A3
:1008F00009D14FF400414F4800F033FE2021414818
:1009000000F02FFE08E04FF400414A4800F02BFEB3
:1009100020213C4800F027FE4A480068322816DDB6
:10092000002048490860414908704FF4004141489F
:1009300000F019FE2021334800F015FE082131484F
:1009400000F011FE4FF400712E4800F00CFE354807
:100950000068012811D13649086800EBD0714910B0
:10096000B0EB410104D11021264800F0FAFD08E067
:100970001021244800F0F7FD03E01021214800F089
:10098000F0FD25480068002874D027480068012839
:100990006FD11E480068102807DB1D48006810282A
:1009A00003DB1C480068102865DA1B480068022831
:1009B0005FDD0221134800F0D6FD0421114800F04C
:1009C000D2FD0120104908601548007817490870C9
:1009D0001148006805283DDB0C480068B0F5407FF1
:1009E00038DC0B480068B0F5407F2DE08000002027
:1009F0007C000020840000208C0000208800002063
:100A000090000020000C0140640000203C00002009
:100A10004000002044000020500000200010014051
:100A20006800002078000020580000205C000020B2
:100A30005400002000080140600000203800002021
:100A4000340000207400002004DCFA480068B0F58F
:100A5000407F02DD0120F84908600020F749086066
:100A6000F7490860F7490860F7490860642000F01A
:100A70003BFA20E046E0F14800683C281BDD0020FE
:100A8000EE4908600221F14800F06DFD0421EF48B5
:100A900000F069FDEA480078ED4908700020E84957
:100AA0000860E8490860E8490860642000F01CFA22
:100AB0000120E8490860E848006818BBE74800687A
:100AC000FF2820DCDD48006803281CDD0221DF4808
:100AD00000F049FD0421DD4800F045FD0120DD491D
:100AE0000860DB490870D5480068052802DA012053
:100AF000D14908600020D1490860D14908606420CC
:100B000000F0F2F91FE0CD48006864281BDD0020EA
:100B1000CA4908600221CD4800F025FD0421CB48D8
:100B200000F021FDC6480078C94908700020C4497A
:100B30000860C4490860C4490860642000F0D4F922
:100B40000120C4490860C6480068A0B9BB480068D5
:100B5000C2490968B74A1268C24B1B68CDE9003226
:100B6000CDE90210C0480368C0480268C048016867
:100B7000C0A002F05FFA05E510B50121C74801F0F9
:100B80007DFEB748006800F00704B5480068C0B9AA
:100B90000020C3490860C3490860C3490860C349CD
:100BA0000860C3490860C3490860C3490860C34975
:100BB0000860C3490860C3490860C3490860C34965
:100BC0000860A7480068401CA5490860012C13D1A3
:100BD000002301220521BE4800F04FFA0023012224
:100BE0000421BC4800F049FA0121B94800F019FA83
:100BF0000121B84800F015FA022C19D1B44800F0D0
:100C0000A3FAAD4909680844AB490860A4480068E4
:100C1000401CA3490860AF4800F096FAA74909684C
:100C20000844A64908609F480068401C9D49086028
:100C3000032C13D1002301220321A54800F01DFA43
:100C4000002301220221A34800F017FA0121A04845
:100C500000F0E7F901219F4800F0E3F9042C19D1D5
:100C60009B4800F071FA9649096808449449086065
:100C70008D480068401C8C490860964800F064FA72
:100C80009049096808448F49086088480068401CFA
:100C900086490860052C13D10023012211468C4897
:100CA00000F0EBF90023012219468A4800F0E5F92B
:100CB0000121874800F0B5F90121864800F0B1F91B
:100CC000062C19D1824800F03FFA7F490968084490
:100CD0007D49086076480068401C754908607D4879
:100CE00000F032FA79490968084478490860714887
:100CF0000068401C6F4908605948006841F288311B
:100D0000884254D9072C52D10020554908606A48BE
:100D100000686349096890FBF1F05549086067482D
:100D200000686049096890FBF1F050490860644828
:100D300000685D49096890FBF1F04B490860614823
:100D400000685A49096890FBF1F0464908605E481E
:100D500000685749096890FBF1F0364908605B4824
:100D600000685449096890FBF1F03C490860084666
:100D70000068A0F50060086008460068002801DAF5
:100D8000002008602D48006820B12C480068401CF5
:100D90002A4908605048006820B14F480068401C4C
:100DA0004D4908604D480068401C4C4908602C487B
:100DB00000684FF4FA71B0FBF1F201FB1200E8B9E0
:100DC0002048006820B11F480068401C1D49086089
:100DD0001C480068142802DD14201A4908601A48CB
:100DE000006820B118480068401C17490860164880
:100DF0000068142802DD14201349086010BD08B5EE
:100E00000121042000F0C5FD18208DF803004FF4E7
:100E10008070ADF8000003208DF80200694630486C
:100E200000F0F4FA2F48406840F080602D49486097
:100E300008BD000044000020780000205000002081
:100E4000680000208C00002090000020000C014071
:100E50005C000020640000205800002048000020B2
:100E60004C000020400000203C0000203800002002
:100E70003400002025303378202530337820253089
:100E800033782025303378202530337820253033CF
:100E90007820253032640D0A000000000008004070
:100EA0001C0000202000002024000020280000203A
:100EB0002C0000203000002004000020080000204A
:100EC0000C0000201000002014000020180000205A
:100ED000002401400028014074000020540000203C
:100EE000000801400010024001B502E00098401ED9
:100EF000009000980028F9D108BD000010B5044604
:100F0000FA48844208D10121401500F05CFD00211F
:100F1000601500F058FD17E0F548844208D1012122
:100F2000001500F050FD0021201500F04CFD0BE0F5
:100F3000F048844208D10121C80300F044FD00219B
:100F40004FF4004000F03FFD10BD30B502460020D8
:100F500000235068E84C20400D790C6844EA0524D1
:100F6000204350609068E54C2040D1E902542C4366
:100F70004D7944EA450420439060D06A20F4700023
:100F80000C7C641EE4B2234340EA0350D06230BDBF
:100F900000210160017141718160C1600121017412
:100FA000704721B1826842F00102826003E08268EA
:100FB00022F001028260704721B1826842F480729F
:100FC000826003E0826822F480728260704710B50C
:100FD0000023CBB21AB144681C43446002E0446869
:100FE0009C43446010BD816841F0080181607047F6
:100FF000014600208A6812F0080F01D0012000E0AD
:1010000000207047816841F004018160704701460B
:1010100000208A6812F0040F01D0012000E00020B7
:10102000704721B1826842F4A002826003E08268C6
:1010300022F4A00282607047014600208A6812F400
:10104000800F01D0012000E00020704710B50A4653
:1010500000210023416821F46041531E41EA4331DD
:10106000416010BD21B1426842F40062426003E079
:10107000426822F4006242607047F0B504460D46B3
:1010800000200021092D11DDE068A5F10A0606EB1C
:101090004607072606FA07F18843A5F10A0606EB7C
:1010A000460603FA06F10843E0600CE0206905EB10
:1010B0004507072606FA07F1884305EB450603FABC
:1010C00006F108432061072A0FDA606B561E06EB13
:1010D00086071F2606FA07F18843561E06EB86068A
:1010E00005FA06F10843606322E00D2A0FDA206B4F
:1010F000D61F06EB86071F2606FA07F18843D61F80
:1011000006EB860605FA06F10843206310E0E06A64
:10111000A2F10D0606EB86071F2606FA07F18843A3
:10112000A2F10D0606EB860605FA06F10843E06219
:10113000F0BD21B1826842F48012826003E08268CF
:1011400022F48012826070470146C86C80B27047FA
:1011500066484C300068704721B1426842F48062B2
:10116000426003E0426822F480624260704721B12D
:10117000426842F48052426003E0426822F48052A6
:10118000426070470A460021816821F4E041114322
:101190008160704721B1826842F40042826003E0BE
:1011A000826822F400428260704721B1826842F472
:1011B0000212826003E0826822F4021282607047A9
:1011C000014600208A6812F4001F01D0012000E0CF
:1011D00000207047F0B50446154600200022002686
:1011E000092911DDE068A1F10A0707EB470C072781
:1011F00007FA0CF29043A1F10A0707EB470703FA3D
:1012000007F21043E0600CE0206901EB410C072776
:1012100007FA0CF2904301EB410703FA07F210437F
:101220002061A06BC0F30156EF1C06F1010CA7EB87
:101230000C0707EB870C1F2707FA0CF29043EF1CF3
:1012400006F1010CA7EB0C0707EB870701FA07F281
:101250001043A063F0BD10B50A4600210023816B46
:1012600021F44011531E41EA0351816310BD08B5BA
:10127000002300930090009B0B440093009B1A6096
:1012800008BD08B5024600200090009201F1280038
:10129000009B184400900098006880B208BD0A4680
:1012A00000214168164B194011434160704741626B
:1012B000826270470A460021416821F01F011143F4
:1012C0004160704740B109490831096841F40001A3
:1012D000064A0832116007E004490831096821F420
:1012E0000001024A083211607047000000240140EA
:1012F00000280140003C0140FFFEF0FFFDF7F1FF38
:10130000FFFD3FFF0246002013680B4201D0012081
:1013100000E000207047CA430260704770B5024683
:101320000020002300240B125568CEB205EA060403
:1013300015681D4202D00CB1012000E0002070BDF4
:1013400000220A12D34303607047000010B5044620
:10135000CA48844208D10121042000F034FB002156
:10136000042000F030FB46E0C548844208D101214A
:10137000082000F028FB0021082000F024FB3AE0C0
:10138000C048844208D10121102000F01CFB00213C
:10139000102000F018FB2EE0BB48844208D1012148
:1013A000202000F010FB0021202000F00CFB22E0A8
:1013B000B648844208D10121402000F004FB0021FE
:1013C000402000F000FB16E0B148844208D1012122
:1013D000802000F0F8FA0021802000F0F4FA0AE002
:1013E000AC48844207D10121801500F0ECFA0021BD
:1013F000A01500F0E8FA10BD10B50121084600F074
:10140000E2FA0021012000F0DEFA10BD2DE9F041E2
:10141000024600250026002000230024002791F822
:1014200003C00CF00F0591F803C01CF0100F03D09F
:1014300091F802C04CEA050591F800C0BCF1000F1C
:1014400031D0146800202BE04FF0010C0CFA00F3AF
:10145000B1F800C00CEA03069E4220D183004FF091
:101460000F0C0CFA03F7BC4305FA03FC4CEA040426
:1014700091F803C0BCF1280F06D14FF0010C0CFA13
:1014800000FCC2F814C00AE091F803C0BCF1480F98
:1014900005D14FF0010C0CFA00FCC2F810C0401C42
:1014A0000828D1D31460B1F800C0BCF1FF0F34DDBF
:1014B000546800202EE000F1080C4FF0010808FAF3
:1014C0000CF3B1F800C00CEA03069E4221D1830060
:1014D0004FF00F0C0CFA03F7BC4305FA03FC4CEA7F
:1014E000040491F803C0BCF1280F05D100F1080CE9
:1014F00008FA0CF8C2F8148091F803C0BCF1480F48
:1015000007D100F1080C4FF0010808FA0CF8C2F8F6
:101510001080401C0828CED35460BDE8F0814FF6FF
:10152000FF710180022181700421C1707047024661
:10153000002093680B4201D0012000E0002070479A
:101540000146886880B2704702460020D3680B428B
:1015500001D0012000E0002070470146C86880B239
:10156000704701617047416170470AB1016100E055
:1015700041617047C16070474FF480320A43826115
:101580008161826182698269704702460020424B14
:1015900018684FF68073184040EA021008433E4B2B
:1015A000186070473D49C8617047F0B50A4600238E
:1015B00000240021002500F00046B6F1004F02D1C2
:1015C000354EF16901E0344E7168C0F3034583B2D2
:1015D00000F44016B6F5401F08D121F070612E4E80
:1015E000766826F070662C4F7E6012E000F480165C
:1015F000B6F5801F06D1032606FA05F4A14341F093
:10160000706106E0460D360103FA06F6B14341F07B
:10161000706122B1460D360103FA06F6314300F03F
:101620000046B6F1004F02D11B4EF16101E01A4EA7
:101630007160F0BD30B500228B071C0F0F2303FA39
:1016400004F2154B08338C1053F824309343124C9A
:1016500008348D1044F8253023468C1053F824307C
:101660008C07240F00FA04F423430B4C08348D102C
:1016700044F8253030BD0A49086070470008014031
:10168000000C01400010014000140140001801400E
:10169000001C0140002001400000014000002042E9
:1016A000DC002042E448006840F00100E2490860A4
:1016B00008464068E1490840DF494860084600683C
:1016C000DF490840DC4908600846006820F48020B3
:1016D00008600846406820F4FE0048604FF41F0090
:1016E00088600020C8627047D349096821F48031BE
:1016F000D14A11601146096821F480211160B0F5CA
:10170000803F03D0B0F5802F0ED106E0CA490968AA
:1017100041F48031C84A116007E0C749096841F4C3
:10172000A021C54A116000E000BF00BF704710B59E
:1017300001460022002300204A11012A02D1BE4C9A
:10174000236806E0022A02D1BB4C236A01E0BA4CAE
:10175000636A01F01F02012494401C4201D0012061
:1017600000E0002010BD38B50020009000240025C6
:1017700000BF3120FFF7DBFF05460098401C0090BA
:101780000098B0F5A06F01D0002DF2D03120FFF706
:10179000CEFF08B1012400E00024204638BD0146F8
:1017A0000020A54A106820F0F80040EAC10010604F
:1017B0007047A44908607047024600209E4B586855
:1017C00020F4741042EA010318439B4B58607047A1
:1017D0009C490866704702460020974BD86A9A4B8E
:1017E000184042EA01031843934BD8627047014600
:1017F0000020914A506820F0030008435060704771
:101800008D48406800F00C007047014600208A4A6D
:10181000506820F0F00008435060704701460020F7
:10182000854A506820F4E0600843506070470146E4
:101830000020814A506820F4605040EAC1005060A6
:10184000704729B17C4A527A02437B4B5A7204E0BA
:10185000794A527A8243784B5A7270477B490860C2
:10186000704701460020744A506820F44040084305
:10187000506070470021764A11706F4A82F820103C
:10188000012802D0042808D103E00121704A117018
:1018900004E005216E4A117000E000BF00BF7047F0
:1018A0006C49086070476449096A0143624A1162E1
:1018B0007047684944390860704770B500210023BB
:1018C0000024002200255C4E766806F00C0121B150
:1018D000042905D0082921D105E05F4E066020E0EB
:1018E0005D4E06601DE0544E766806F47013524E4D
:1018F000766806F48034022606EB93431CB9574EF3
:101900005E43066009E04C4EF66A06F00F06751C51
:10191000514EB6FBF5F65E43066002E04E4E0660A1
:1019200000BF00BF444E766806F0F00109094C4E36
:10193000725C0668D64046603F4E766806F4E06109
:10194000090A474E725C4668D64086603A4E766811
:1019500006F46051C90A424E725C4668D640C660C1
:10196000354E766806F44041890B3E4E725CC6687F
:10197000B6FBF2F6066170BD29B12F4A52690243E7
:101980002D4B5A6104E02C4A526982432A4B5A611A
:10199000704729B1284A92690243274B9A6104E0B3
:1019A000254A92698243244B9A61704729B1224AA1
:1019B000D2690243204BDA6104E01F4AD2698243B4
:1019C0001D4BDA61704729B11B4AD26802431A4B9A
:1019D000DA6004E0184AD2688243174BDA60704735
:1019E00029B1154A12690243134B1A6104E0124AE5
:1019F00012698243104B1A617047164940390860DA
:101A000070471049C86470470B49C87170470A484D
:101A1000406A40F0807008494862704701460020E3
:101A2000054A92680A4201D0012000E00020704778
:101A30000149887270470000001002400000FFF862
:101A4000FFFFF6FE00004242F0FFFEFFD8004242D8
:101A5000201002408004424200127A0000093D003A
:101A600094000020A400002010B50446FE488442E3
:101A700008D10121C014FFF7A6FF0021E014FFF7F1
:101A8000A2FFC4E0B4F1804F08D101210846FFF75E
:101A9000A7FF00210120FFF7A3FFB8E0F34884422D
:101AA00008D101210220FFF79BFF00210220FFF750
:101AB00097FFACE0EE48844208D101210420FFF7F3
:101AC0008FFF00210420FFF78BFFA0E0E94884424C
:101AD00008D101210820FFF783FF00210820FFF72C
:101AE0007FFF94E0E448844208D101211020FFF7F1
:101AF00077FF00211020FFF773FF88E0DF48844262
:101B000008D101212020FFF76BFF00212020FFF7E3
:101B100067FF7CE0DA48844208D101214014FFF7D6
:101B200052FF00216014FFF74EFF70E0D548844259
:101B300009D10121C804FFF746FF00214FF400201E
:101B4000FFF741FF63E0D048844209D10121080535
:101B5000FFF739FF00214FF48010FFF734FF56E004
:101B6000CA48844209D101214805FFF72CFF002112
:101B70004FF40010FFF727FF49E0C548844208D121
:101B800001214020FFF72CFF00214020FFF728FF14
:101B90003DE0C048844208D101218020FFF720FFAA
:101BA00000218020FFF71CFF31E0BB48844208D1B0
:101BB00001218015FFF714FF0021A015FFF710FF8A
:101BC00025E0B648844209D101210804FFF7FBFE55
:101BD00000214FF48030FFF7F6FE18E0B048844251
:101BE00009D101214804FFF7EEFE00214FF4003037
:101BF000FFF7E9FE0BE0AB48844208D101218804DD
:101C0000FFF7E1FE00214FF48020FFF7DCFE10BD5E
:101C100000220288944B98420ED0994B98420BD0E8
:101C2000B0F1804F08D0914B984205D0904B98422C
:101C300002D0904B984204D14FF68F731A404B88D4
:101C40001A438D4B984207D08C4B984204D04FF6E4
:101C5000FF431A40CB881A4302808B8883850B8808
:101C60000385814B98420BD0854B984208D08B4B13
:101C7000984205D08A4B984202D08A4B984201D1B3
:101C80000B7A038601238382704770B500240022FB
:101C90000023058C4FF6FE7635400584028C838840
:101CA000048B4FF68F752C40B51E2C400D882C43AD
:101CB000751E2A400D892A434D882A436A4DA84241
:101CC0000BD06F4DA84208D0744DA84205D0744D7A
:101CD000A84202D0734DA84213D14FF6F7752A409F
:101CE0004D892A434FF6FB752A408D882A434FF6CB
:101CF000FF652B404FF6FF552B408D892B43CD8937
:101D00002B4383800483CD888586028470BD70B5A3
:101D1000002400220023058C4FF6EF763540058421
:101D2000028C8388048B48F6FF752C404FF6FF45E4
:101D30002C400D884FF6FF7606EA05252C434FF61A
:101D4000DF752A400D8906EA05152A434D8806EA03
:101D500005152A43444DA84202D0494DA8421DD141
:101D60004FF67F752A404D894FF6FF7606EA051536
:101D70002A434FF6BF752A408D8806EA05152A4387
:101D80004FF6FF352B404FF2FF752B408D8906EA49
:101D900085052B43CD8906EA85052B438380048383
:101DA000CD880587028470BD70B500240022002311
:101DB000058C4FF6FF6635400584028C8388848B42
:101DC0004FF68F752C404FF6FC752C400D882C4338
:101DD0004FF6FF552A400D894FF6FF7606EA052596
:101DE0002A434D8806EA05252A431F4DA84202D002
:101DF000234DA8421DD14FF2FF752A404D894FF661
:101E0000FF7606EA05252A434FF6FF352A408D88DE
:101E100006EA05252A434EF6FF752B404DF6FF7561
:101E20002B408D8906EA05152B43CD8906EA051559
:101E30002B4383808483CD888587028470BD70B5F1
:101E4000002200230024058C4EF6FF7635400584E1
:101E5000038C8488828B48F6FF752A404FF6FF4535
:101E60002A400D8820E00000002C014000040040C2
:101E700000080040000C004000100040001400402A
:101E800000340140004C014000500140005401402A
:101E900000180040001C00400020004000400140AD
:101EA00000440140004801404FF6FF7606EA052550
:101EB0002A434DF6FF752B400D8906EA05352B4365
:101EC0004D8806EA05352B43FA4DA84202D0FA4D5B
:101ED000A84208D14BF6FF752C408D894FF6FF764E
:101EE00006EA85152C4384808283CD88A0F8405073
:101EF000038470BD828B4FF2FF331A408283828B42
:101F00004FF6FF7303EA01231A4382837047F0B54B
:101F10000C461546002200210026078C4EF6FF7C59
:101F200007EA0C070784828B018C4FF6FF7707EADC
:101F3000043640F6FF473A404FF6FF7707EA052799
:101F40003A434FF6FF7707EA03373A43D94FB8428F
:101F50000ED0D94FB8420BD0B0F1804F08D0D74F38
:101F6000B84205D0D64FB84202D0D64FB84206D1BB
:101F70004DF6FF77394046F48057394305E047F680
:101F8000FF57394044F48057394382830184F0BDC0
:101F9000828B4FF6F3731A408283828B0A438283CB
:101FA0007047F0B50C461546002200210026078C2C
:101FB0004FF6FF6C07EA0C070784828B018C4FF603
:101FC000FF7707EA04264FF60C773A404FF6FF7783
:101FD00007EA03172F433A43B64FB8420ED0B64F25
:101FE000B8420BD0B0F1804F08D0B44FB84205D002
:101FF000B34FB84202D0B34FB84206D14FF6FF57A5
:10200000394046F48077394305E04FF2FF573940B5
:1020100044F48077394382830184F0BD028B4FF210
:10202000FF331A400283028B4FF6FF7303EA01234A
:102030001A4302837047F0B50C4615460022002172
:102040000026078C4FF6EF7C07EA0C070784028B0B
:10205000018C4FF6FF7707EA041640F6FF473A4037
:102060004FF6FF7707EA03373A434FF6FF7707EA61
:1020700005273A438F4FB8420ED08F4FB8420BD04E
:10208000B0F1804F08D08D4FB84205D08C4FB84288
:1020900002D08C4FB84206D14FF6DF77394046F078
:1020A0001007394305E04FF65F77394044F01007D9
:1020B000394302830184F0BD028B4FF6F3731A405B
:1020C0000283028B0A4302837047F0B50C46154623
:1020D00000220021068C4FF6FE773E400684028BDC
:1020E000018C4FF60C7632407E1C06EA03162E4316
:1020F0003243704EB0420ED06F4EB0420BD0B0F1B2
:10210000804F08D06D4EB04205D06D4EB04202D027
:102110006C4EB04206D14FF6FD76314044F00106D8
:10212000314305E04FF6F576314044F00106314386
:1021300002830184F0BD70B505460C465D488542BA
:102140000ED05D4885420BD0B5F1804F08D05B487A
:10215000854205D05A48854202D05A48854200D16E
:1021600000E000BF208850B92389A28861882846F2
:10217000FFF7ABFFE1882846FFF79EFF25E02088A8
:1021800004280AD12389A28861882846FFF753FFD3
:10219000E1882846FFF742FF17E0208808280AD187
:1021A0002389A28861882846FFF7FBFEE18828463C
:1021B000FFF7EEFE09E02389A28861882846FFF731
:1021C000A6FEE1882846FFF795FE70BD2DE9F04197
:1021D00005460C4600260127608808B9022600E063
:1021E0000026A088012801D1022700E001272088CD
:1021F000A0B92389A28861882846FFF766FFE18895
:102200002846FFF759FF23893A4631462846FFF70B
:1022100012FFE1882846FFF701FF13E02389A28817
:1022200061882846FFF707FFE1882846FFF7F6FE9A
:1022300023893A4631462846FFF747FFE18828467A
:10224000FFF73AFFBDE8F0810A884B881A438B8874
:102250001A43CB881A430B891A434B891A438B893B
:102260001A43A0F8442070474FF6FF718180002187
:102270000180C1804180017270470021018041804E
:102280008180C180018141818181C18170470021AC
:1022900001804180012181800021C180018170473E
:1022A0000021018041808180C18001814181818143
:1022B00070470000002C0140003401400004004041
:1022C00000080040000C004021B1028842F00102E9
:1022D000028004E002884FF6FE731A4002807047C5
:1022E00031B1B0F8442042F40042A0F8442005E0A7
:1022F000B0F84420C2F30E02A0F8442070471AB18F
:1023000083890B43838102E083898B4383817047F8
:102310008182704741EA0203A0F8483070471AB141
:1023200083890B43838102E083898B4383817047D8
:1023300001894FF6F8721140018170470A46002169
:1023400001894FF68F73194011430181704730B5F1
:1023500004460D4629462046FFF7F0FF208940F04D
:102360000700208130BD2DE9F04104460D46164698
:102370001F46602D06D13B46012231462046FFF71D
:102380005AFE05E03B46012231462046FFF79DFEFE
:1023900029462046FFF7D2FF208940F00700208120
:1023A000BDE8F08130B50C4600210189C9B24FF675
:1023B000FF7505EA0325154325432943018130BDF7
:1023C0002DE9F04105460E4617469846002443463F
:1023D0003A4631462846FFF7E5FF2C894FF6F8705C
:1023E000044044F007044FF68F70044044F070043A
:1023F0002C81BDE8F081F0B504460D4616461F4617
:102400003B46324629462046FFF7CCFF208940F460
:1024100080402081F0BD0185828270470A460021FC
:1024200001884FF68F731940114301807047F0B552
:102430000C4615461E460021002200230189028B0E
:10244000038C4FF6F877394021434FF6FC473A406A
:1024500040F201173A434FF6DD773B404FF6FF77E6
:1024600007EA06172F433B43018102830384F0BD33
:102470000A460021018B4FF68F73194011430183E7
:1024800070470A460021018B48F6FF7319404FF64A
:10249000FF7303EA02231943018370470A460021B0
:1024A000818B4FF68F7319401143818370470A4621
:1024B0000021818B48F6FF7319404FF6FF7303EA42
:1024C000022319438183704721B1028842F08002C0
:1024D000028004E002884FF67F731A400280704742
:1024E00021B1828842F00402828004E082884FF6A3
:1024F000FB731A408280704721B1828842F0080243
:10250000828004E082884FF6F7731A408280704719
:1025100021B1828842F00102828004E082884FF675
:10252000FE731A40828070470A460021018B4FF6E5
:10253000F77319401143018370470A460021018B4C
:102540004FF2FF7319404FF6FF7303EA022319435A
:10255000018370470A460021818B4FF6F7731940BB
:102560001143818370470A460021818B4FF2FF732C
:1025700019404FF6FF7303EA022319438183704722
:102580000A460021018B4FF6FB731940114301836A
:1025900070470A460021018B4FF6FF3319404FF672
:1025A000FF7303EA02231943018370470A4600219F
:1025B000818B4FF6FB7319401143818370470A46A4
:1025C0000021818B4FF6FF3319404FF6FF7303EA6A
:1025D00002231943818370470A460021018B4FF67D
:1025E0007F7319401143018370470A460021018B14
:1025F000C1F30E014FF6FF7303EA0223194301836F
:1026000070470A460021818B4FF67F7319401143B2
:10261000818370470A460021818BC1F30E014FF67A
:10262000FF7303EA02231943818370470A4600219E
:10263000018C4FF6FD7319401143018470470A461F
:102640000021018C4FF6F773194011430184704744
:102650000A460021018C4FF6DF7319404FF6FF73D5
:1026600003EA02131943018470470A460021018CD2
:102670004FF67F7319404FF6FF7303EA02131943B5
:10268000018470470A460021018C4FF6FF53194020
:102690004FF6FF7303EA02231943018470470A4689
:1026A0000021018C4FF2FF7319404FF6FF7303EACC
:1026B00002231943018470470A460021018C4DF61C
:1026C000FF7319404FF6FF7303EA02331943018485
:1026D000704730B5002301248C40A3B2048C9C4386
:1026E0000484048C02FA01F5ADB22C43048430BD9D
:1026F00030B5002304248C40A3B2048C9C43048492
:10270000048C02FA01F5ADB22C43048430BD70B5DF
:102710000346002000241846183001258D40ACB235
:102720001D8CA5431D8409B1082909D100EB610066
:10273000056825F0700505600568154305600EE025
:102740000D1FC5F34E052844056825F4E0450560D6
:1027500005684FF6FF7606EA02263543056070BD30
:1027600021B1028842F00202028004E002884FF6A2
:10277000FD731A400280704721B1028842F00402C2
:10278000028004E002884FF6FB731A400280704713
:1027900021B1828842F08002828004E082884FF674
:1027A0007F731A408280704702884FF6F7731A4091
:1027B000028002880A430280704782884FF68F7336
:1027C0001A40828082880A438280704702894FF6CD
:1027D000F8731A40028102890A4302817047028914
:1027E0004FF67F731A40028102890A4302817047C3
:1027F0008184704781857047818670470187704763
:1028000081877047A0F84010704702884FF6FF4359
:102810001A40028002880A43028070470146888E6F
:1028200070470146088F70470146888F7047014600
:10283000B1F8400070470146888C70470146088D0A
:10284000704702460020138A0B4201D0012000E0AD
:1028500000207047CA430282704730B5024600200C
:1028600000230024158A05EA0103958905EA01047D
:1028700013B10CB1012000E0002030BDCA43028238
:102880007047000010B50446FB48844209D101217D
:102890008803FFF798F800214FF48040FFF793F882
:1028A00032E0F648844209D101214804FFF798F844
:1028B00000214FF40030FFF793F825E0F048844200
:1028C00009D101218804FFF78BF800214FF4802003
:1028D000FFF786F818E0EB48844209D10121C804CB
:1028E000FFF77EF800214FF40020FFF779F80BE0A6
:1028F000E548844208D101210805FFF771F800215D
:102900004FF48010FFF76CF810BD2DE9F04786B04A
:1029100005460E460024A24600BFA1460027B08906
:1029200000B100BF2F462C8A4CF6FF700440F0889F
:1029300004432C82AC894EF6F3100440B0883189F0
:102940000843718908430443AC81AC8A4FF6FF40C9
:102950000440B0890443AC8201A8FEF7AEFFC6482C
:10296000874202D1DDF810A001E0DDF80CA0A889B3
:1029700010F4004F08D00AEBCA0000EB0A103168CF
:102980004900B0FBF1F807E00AEBCA0000EB0A10BF
:1029900031688900B0FBF1F86420B8FBF0F0040165
:1029A0002009642101FB1089A88910F4004F08D088
:1029B000322000EBC900B0FBF1F000F00700044347
:1029C00008E0322000EB09106421B0FBF1F000F0C8
:1029D0000F0004432C8106B0BDE8F0874FF4165178
:1029E000016000218180C18001810C214181002191
:1029F0008181704710B502460020108A4FF2FF0314
:102A000018400B884C8823438C882343CC8823436D
:102A10001843108210BD0021018041808180C18057
:102A2000704721B1828942F40052828104E0828998
:102A30004DF6FF731A4082817047F0B503460024BB
:102A4000002600250020A1F510676A3F00D100BFD5
:102A50001846C1F3421401F01F06012707FA06F5D4
:102A6000012C01D10C3004E0022C01D1103000E027
:102A700014301AB107682F43076002E00768AF43BC
:102A80000760F0BD1AB1838A0B43838202E0838A18
:102A90008B4383827047028A4FF6F0731A4002829A
:102AA000028A0A430282704782894FF2FF731A40FA
:102AB000828182890A438281704721B1828942F0F2
:102AC0000202828104E082894FF6FD731A408281FE
:102AD0007047028A4FF6DF731A400282028A0A4365
:102AE0000282704721B1028A42F48042028204E0ED
:102AF000028A4BF6FF731A4002827047C1F3080244
:102B00008280704701468888C0F308007047818939
:102B100041F0010181817047028BD2B20283028BA6
:102B200042EA012202837047028B02F47F42028351
:102B3000028B0A430283704721B1828A42F020024D
:102B4000828204E0828A4FF6DF731A4082827047E5
:102B500021B1828A42F01002828204E0828A4FF61A
:102B6000EF731A408282704721B1828A42F00802D4
:102B7000828204E0828A4FF6F7731A40828270479D
:102B800021B1828942F40042828103E08289C2F34A
:102B90000E028281704721B1828A42F400628282F1
:102BA00004E0828A4FF2FF731A4082827047828A61
:102BB0004FF6FB731A408282828A0A4382827047F0
:102BC00021B1828A42F00202828204E0828A4FF6B8
:102BD000FD731A408282704702460020B1F5007FE3
:102BE00000D100BF13880B4201D0012000E000207B
:102BF000704701F40072B2F5007F00D100BFCA43F4
:102C00000280704770B50246002400230025002092
:102C1000A1F510666A3E00D100BFC1F3421501F074
:102C20001F03012606FA03F3012D02D196893340D2
:102C300006E0022D02D1168A334001E0968A334025
:102C40000C12012606FA04F41688344013B10CB1B4
:102C5000012000E0002070BD10B500220023A1F586
:102C600010646A3C00D100BF0A1201249440A3B250
:102C7000DC43048010BD00000038014000440040E7
:102C800000480040004C004000500040704710B524
:102C90003648006840F00100344908600846406842
:102CA00033490840314948600846006831490840C6
:102CB0002E4908600846006820F480200860084615
:102CC000406820F4FE0048604FF41F008860002038
:102CD000C862FFF7DBFF4FF000602749086010BDB6
:102CE00030B50021002000220023204C646804F04D
:102CF0000C0121B1042906D0082925D107E01F4C79
:102D00001F4D2C6024E01D4C1D4D2C6020E0174C05
:102D1000646804F47010154C646804F48032022472
:102D200004EB904022B9174C4443154D2C600AE047
:102D30000E4CE46A04F00F04631C104CB4FBF3F473
:102D400044430F4D2C6003E00C4C0D4D2C6000BF34
:102D500000BF064C6468C4F303140B4D295D084C96
:102D60002468CC40064D2C6030BD000000100240AD
:102D70000000FFF8FFFFF6FE08ED00E000127A0009
:102D8000A800002000093D00AC00002000B585B07F
:102D900001218803FEF7FDFD01210420FEF7F9FD66
:102DA00004A8FEF7BCFB18208DF813004FF4007048
:102DB000ADF8100003208DF8120004A9FE48FEF7BC
:102DC00025FB04208DF813000002ADF8100003204D
:102DD0008DF8120004A9F848FEF718FB6846FFF7C3
:102DE000FDFD4FF4E13000906946F448FFF78DFD9A
:102DF0000121F248FFF715FE252000F011FA05B079
:102E000000BD08B501210420FEF7C3FD10208DF898
:102E100003000001ADF8000003208DF802006946B0
:102E2000E548FEF7F3FA08BD00B585B0FFF7E9FF06
:102E30004FF48071E048FEF796FB01218803FEF70E
:102E4000A8FD01210420FEF7A4FD04A8FEF767FBFE
:102E500018208DF813004FF40070ADF81000032017
:102E60008DF8120004A9D448FEF7D0FA04208DF89A
:102E700013000002ADF8100003208DF8120004A921
:102E8000CD48FEF7C3FA6846FFF7A8FD0020009082
:102E90006946CA48FFF739FD4FF4D070C749083179
:102EA0000880081D008840F02000091D08800121CD
:102EB000C248FFF7B6FD252000F0B2F905B000BD0D
:102EC00000BFBE49098811F0800FFAD0BB49091D27
:102ED0000880704710B503460C463020FFF7F0FF1E
:102EE0007820FFF7EDFFC3F307320A2A08DA0AB9A0
:102EF000042C0ADB02F13001C8B2FFF7E1FF04E065
:102F000002F13701C8B2FFF7DBFFC3F303220A2A3D
:102F100008DA0AB9032C0ADB02F13001C8B2FFF764
:102F2000CFFF04E002F13701C8B2FFF7C9FFC3F3D6
:102F300003120A2A08DA0AB9022C0ADB02F130016C
:102F4000C8B2FFF7BDFF04E002F13701C8B2FFF7D6
:102F5000B7FF03F00F020A2A05DA02F13001C8B206
:102F6000FFF7AEFF04E002F13701C8B2FFF7A8FF98
:102F700010BD30B505460C462B46914893FBF0F248
:102F800040115043A3EB40130AB9062C05DB06247D
:102F900002F13001C8B2FFF793FF42F2107093FBC9
:102FA000F0F200115043A3EB00130AB9052C05DB26
:102FB000052402F13001C8B2FFF782FF4FF47A70A6
:102FC00093FBF0F202EB4200C0EBC210A3EBC00394
:102FD0000AB9042C05DB042402F13001C8B2FFF762
:102FE0006FFF642093FBF0F202EBC20000EB0210D3
:102FF000A3EB80030AB9032C05DB032402F13001A3
:10300000C8B2FFF75DFF0A2093FBF0F202EB8200EB
:10301000A3EB40030AB9022C05DB022402F13001C4
:10302000C8B2FFF74DFF1A4602F13001C8B2FFF7F0
:1030300047FF30BD0FB42DE9F04106AC0025002656
:103040004FF0010800272620FFF73AFF3AE02068FA
:10305000405D252831D16D1C2068405D302805D1A8
:103060006D1C2068405DA0F130086D1C2068405D3B
:10307000782805D1761C54F826004146FFF72AFF30
:103080002068405D642805D1761C54F8260041462E
:10309000FFF76FFF2068405D732812D1761C002770
:1030A00005E054F82610C85DFFF70AFF7F1C54F8AE
:1030B0002600C05D0028F4D103E02168485DFFF7D9
:1030C000FFFE6D1C2068405D0028C0D1BDE8F00106
:1030D0005DF814FB10B504464FF480713648FEF7D6
:1030E00040FA2046FFF7ECFE4FF47A70FDF7FCFE45
:1030F0004FF480713048FEF736FA10BD70B50446C3
:103100000D464FF480712C48FEF72BFA29462046D5
:10311000FFF7E0FE4FF47A70FDF7E6FE4FF48071A2
:103120002548FEF720FA70BD70B504460D464FF4F1
:1031300080712148FEF715FA29462046FFF719FF4E
:103140004FF47A70FDF7D0FE4FF480711A48FEF705
:103150000AFA70BD0FB42DE9F04106AC0025002637
:103160004FF0010800274FF480711348FEF7F9F97A
:103170002620FFF7A5FE42E02068405D252839D1D2
:103180006D1C2068405D302805D16D1C2068405DB5
:10319000A0F130086D1C2068405D782805D1761CB0
:1031A00054F826004146FFF795FE2068405D6428EC
:1031B0000DD1761C06E000000008014000380140F7
:1031C000A086010054F826004146FFF7D2FE206891
:1031D000405D732812D1761C002705E054F82610B4
:1031E000C85DFFF76DFE7F1C54F82600C05D002807
:1031F000F4D103E02168485DFFF762FE6D1C206892
:10320000405D0028B8D14FF47A70FDF76DFE4FF4A1
:1032100080710948FEF7A7F9BDE8F0015DF814FBDD
:1032200000F01F020121914042094FF0E02303EB1F
:103230008202C2F8001170470008014070477047D1
:103240007047754600F028F8AE46050069465346BB
:1032500020F00700854618B020B5FCF7A3FFBDE8B5
:1032600020404FF000064FF000074FF000084FF0ED
:10327000000B21F00701AC46ACE8C009ACE8C0097E
:10328000ACE8C009ACE8C0098D4670470446AFF30E
:1032900000802046FCF771FF00487047BC0000200A
:1032A00001491820ABBEFEE726000200704700006F
:1032B000D032000800000020BC00000028010008F7
:1032C0008C330008BC0000206406000044010008A4
:1032D000404B4C0000000000000000000000000017
:1032E00000000000000000000000000000000000DE
:1032F00000000000000000000000000000000000CE
:1033000000000000000000000000000000000000BD
:1033100000000000000000000000000000000000AD
:10332000000000000000000000000000000000009D
:10333000000000000000000000000000000000008D
:10334000000000000000000000000000000000007D
:10335000000000000000000000000000000000006D
:103360000000000000000000010203040102030449
:10337000060708090204060800127A00000000008F
:0C33800000000000010203040607080919
:040000050800018965
:00000001FF
