:020000040800F2
:10000000F80F0020CD010008D5010008D701000835
:10001000D9010008DB010008DD0100080000000034
:10002000000000000000000000000000DF010008E8
:10003000E101000800000000E3010008E5010008FC
:10004000E7010008E7010008E7010008E7010008F0
:10005000E7010008E7010008E7010008E7010008E0
:10006000E7010008E7010008E7010008E7010008D0
:10007000E7010008E7010008E7010008E7010008C0
:10008000E7010008E7010008E7010008E7010008B0
:10009000E7010008E7010008E7010008E7010008A0
:1000A000E7010008E7010008E7010008E701000890
:1000B000E7010008E7010008E7010008E701000880
:1000C000E7010008E7010008E7010008E701000870
:1000D000E7010008E9040008E7010008E70100085B
:1000E000E7010008E7010008E7010008E701000850
:1000F000E7010008E7010008E7010008E701000840
:10010000E7010008E7010008E7010008E70100082F
:10011000E7010008E7010008E7010008E70100081F
:10012000E7010008E7010008E7010008E70100080F
:1001300000F002F800F03AF80AA090E8000C8244BF
:100140008344AAF10107DA4501D100F02FF8AFF29C
:10015000090EBAE80F0013F0010F18BFFB1A43F0A5
:10016000010318477C3400009C340000103A24BF7F
:1001700078C878C1FAD8520724BF30C830C144BF0C
:1001800004680C607047000000230024002500264E
:10019000103A28BF78C1FBD8520728BF30C148BFEA
:1001A0000B6070471FB51FBD10B510BD03F0D1F92E
:1001B0001146FFF7F7FF00F031F903F0EFF903B450
:1001C000FFF7F2FF03BC03F0F3F900000948804792
:1001D00009480047FEE7FEE7FEE7FEE7FEE7FEE729
:1001E000FEE7FEE7FEE7FEE704480549054A064B41
:1001F00070470000B11C000831010008F809002018
:10020000F80F0020F80B0020F80B002008B50121A2
:10021000082001F0EDF810208DF803004002ADF841
:10022000000003208DF802006946DC4800F02AFE39
:1002300008BD00B587B00121082001F0D9F80121DF
:10024000880301F0E2F84FF40050ADF818000320E5
:100250008DF81A0018208DF81B0006A9CF4800F071
:1002600011FE4FF40040ADF8180006A9CB4800F08D
:1002700009FE4FF48040ADF8180004208DF81B00F3
:1002800006A9C64800F0FEFD4FF48050ADF81800F6
:1002900010208DF81B0006A9C04800F0F3FD0820CF
:1002A000ADF8180010208DF81B0006A9BB4800F01F
:1002B000E9FD0020ADF804004FF48270ADF80600AF
:1002C0000020ADF80800ADF80A00ADF80C004FF4BE
:1002D0000070ADF80E000820ADF810000020ADF859
:1002E00012000720ADF8140001A9AD4801F00EF985
:1002F0000121AB4801F0AFF907B000BD10B54FF4D4
:100300008051A64800F069FE0821A44800F067FE6D
:10031000A44800F041FA0821A04800F05EFEA2487F
:1003200000F03AFA10BD704700B585B09F49002033
:1003300002F05AF89D49012002F056F803A908205E
:1003400001F03AFF03A99AA002F061FD97484179B4
:100350000079964AD278CDE90020029193488378BB
:100360004278017898A002F052FD9048407A0090BF
:100370008E48037AC27981799DA002F048FD8B48AE
:10038000407C00908948037CC27B817B9DA002F069
:100390003EFD8648407B00908448037BC27A817A88
:1003A0009DA002F034FD8148407D00907F48037D90
:1003B000C27C817C9DA002F02AFDA1A002F027FD55
:1003C00005B000BD1FB5A54B0FCB8DE80F00A449AC
:1003D000A44801F00AFDA449A44801F02AFD694699
:1003E000012001F0E9FE401C04D1A1A002F00FFDA4
:1003F00000BFFEE71FBD08B50121802000F0F8FF17
:1004000010208DF803000120ADF8000003208DF8C6
:10041000020069469D4800F035FD08BD01F048FC2A
:10042000FFF7E9FF0121994800F0D7FD02F04FFBEB
:1004300097A002F0ECFC02F086FA02F0E6FAFFF771
:10044000C1FFFFF771FF02F06AFD0421082002F0EE
:1004500009FE08219B4800F0C0FD42F2107000F038
:100460009BF90821974800F0BAFD162096490880AC
:1004700009E000219448008802F0F4FD92480088C9
:10048000401C9149088090480088B0F5C06FF0DBAF
:1004900005213B2002F0E6FD3B2002F0EEFE044683
:1004A0002246052189A002F0B2FC95213A2002F0F3
:1004B000D9FD3A2002F0E1FE04462246952192A0A1
:1004C00002F0A5FC0421162002F0CCFD162002F05B
:1004D000D4FE0446224604219AA002F098FC02E0D1
:1004E000A74800F059F9FBE710B540F22551A5489F
:1004F00001F02CFBC0B1A348008820F02000A149E6
:100500000880084601F0A2FAC4B29F489F490968D2
:1005100044549E490968481CC11700EB1161091237
:10052000A0EB0121994A11609648008810F0400F15
:1005300005D09448008820F040009249088010BD02
:1005400008B50121042000F053FF10208DF80300AE
:100550004001ADF8000003208DF8020069468C4888
:1005600000F090FC08BD08B50121042000F040FF18
:1005700018208DF803004FF48070ADF800000320C0
:100580008DF802006946824800F07CFC8148406892
:1005900040F080607F49486008BD0000000C0140C9
:1005A00000380040D0FB010030E6020010000020BF
:1005B0000D0A3D3D3D202573204E455420434F4EAE
:1005C00046203D3D3D0D0A004D41433A2025303245
:1005D000783A253032783A253032783A25303278F8
:1005E0003A253032783A253032780D0A0000000082
:1005F0005349503A2025642E25642E25642E256407
:100600000D0A00004741523A2025642E25642E250C
:10061000642E25640D0A00005355423A2025642EAD
:1006200025642E25642E25640D0A0000444E533A9D
:100630002025642E25642E25642E25640D0A0000D5
:100640003D3D3D3D3D3D3D3D3D3D3D3D3D3D3D3DDA
:100650003D3D3D3D3D3D0D0A00000000C035000818
:100660002529000819290008312900083D2900081A
:1006700057495A4348495020496E697469616C6909
:100680007A6564206661696C2E0D0A00001C0140C9
:10069000426567696E206F662070726F6772616D68
:1006A0006D2A2A2A2A2A2A2A2A2A2A2A2A2A2A2A67
:1006B0002A2A2A2A2A2A2A2A2A2A2A2A2A2A2A2A9A
:1006C0000D0A0000001401402A00002030303033B1
:1006D0005F5F5F5F5F5B307833625D203D20253078
:1006E00032785F5F5F525F4964656E745F48696727
:1006F000685F5F5F5F5F5F5F5F5F5F5F5F25303297
:10070000785F0D0A00000000303030345F5F5F5FBB
:100710005F5B307833615D203D20253032785F5F4C
:100720005F525F4964656E745F4C6F775F5F5F5FB8
:100730005F5F5F5F5F5F5F5F5F253032785F0D0AED
:1007400000000000303030355F5F5F5F5F5B307806
:1007500031365D203D20253032785F5F5F525F5437
:10076000535F4164725F5F5F5F5F5F5F5F5F5F5FAB
:100770005F5F5F5F5F253032785F0D0A0000000029
:10078000809698000038014094000020000000206E
:10079000000801400010024001B502E00098401E30
:1007A000009000980028F9D108BD000030B943F24C
:1007B000DB014FF0204242F8201005E043F2D20165
:1007C0004FF0204242F820106FF07042411C4FF071
:1007D000204343F8212011461A4602EB8002C2F85A
:1007E0000411704710280AD118214FF020421166D9
:1007F000402151664FF0FC319166D16610E018211E
:10080000F84A11604FF040014FF02042C2F88410C6
:100810004FF0FC31F44A11604FF02042C2F88C10C6
:1008200070471820F14908604FF000004FF0204158
:10083000C1F8A4004FF0FC30ED49086001F104015B
:10084000086001F1040108607047D0E9011211430A
:10085000C26811430269114342691143826911431D
:10086000C2691143026A1143426A1143826A114309
:10087000C26A1143026B11434FF02043026843F8F0
:1008800022108168082908D11A46016852F82110FF
:1008900041F04001026843F82210416B0968426B45
:1008A000526841EA0211426B926841EA0221426BAE
:1008B000928941EA0241426B128A41EA0251426B3B
:1008C000127D41EA0261426B926911430268521C37
:1008D0004FF0204343F82210C16AB1F5804F1AD17E
:1008E000816B0968826B526841EA0211826B9268DF
:1008F00041EA0221826B128A41EA0251826B127D27
:1009000041EA0261826B92691143026803EB820241
:10091000C2F8041108E06FF070414FF02043026804
:1009200003EB8202C2F80411704730B500210022A7
:100930000023446844F0080485682C43C5682C43B0
:1009400005692C43456944EA4524856944EA4531F3
:10095000C4692468C5696D6844EA0524C5692D89A0
:1009600044EA0544C5692D7B44EA0562046A2468AB
:10097000056A6D6844EA0524056A2D8944EA054440
:10098000056A2D7B44EA05630468102C05D14FF0FD
:1009900020442166A266E36607E0924C21604FF096
:1009A0002044C4F88820934C236030BD016841F096
:1009B0001001426841EA4221826841EA42318B4A91
:1009C0001160C1680968C268526841EA0221C268C0
:1009D000128941EA0241C268127B41EA0261844AFB
:1009E0001160016909680269526841EA02210269DD
:1009F000128941EA02410269127B41EA02617E4AA0
:100A00001160416909684269526841EA02214269FC
:100A1000128941EA02414269127B41EA02614FF0C8
:100A20002042C2F8B01070470021016002214160ED
:100A300000218160C160016141618161C161016228
:100A40004FF480514162490081620021C16201631B
:100A50000F21426B1160426B5160FF21426B91602C
:100A60000F21426BD160426B1161426B51610021D9
:100A7000426B91610F21826B1160826B5160FF218B
:100A8000826B91600F21826BD160826B1161826BEE
:100A900051610021826B916170471021016000213A
:100AA00041608160C160016141618161FC21C26975
:100AB0001160C2695160C2699160C269D160026A05
:100AC0001160026A5160026A9160026AD1607047E7
:100AD0000021016041608160FC21C2681160C26830
:100AE0005160C2689160C268D16002691160026998
:100AF0005160026991600269D16042691160426986
:100B00005160426991604269D160704751B14FF0C4
:100B1000204252F8202042F001024FF0204343F8D7
:100B2000202009E04FF0204252F82020334B1A4099
:100B30004FF0204343F82020704799B1102808D186
:100B40004FF02042126E42F004024FF020431A662A
:100B50001DE0244A126842F004024FF02043C3F81B
:100B6000802014E0102809D14FF02042126E234B50
:100B7000DB1E1A404FF020431A6608E0194A12683B
:100B80001F4B02EA03024FF02043C3F88020704756
:100B900040B11649096841F004014FF02042C2F803
:100BA000A01008E011490968154A01EA02014FF056
:100BB0002042C2F8A010704799B1102808D14FF018
:100BC0002042126E42F040024FF020431A662DE0A0
:100BD000044A126842F040024FF02043C3F88020DC
:100BE00024E00FE0800000A0880000A0A00000A08A
:100BF000A80000A08C0000A0AC0000A0FEFF0F0029
:100C0000FBFF0F00102808D14FF02042126E684BF6
:100C10001A404FF020431A6608E0664A1268644B97
:100C200002EA03024FF02043C3F8802070470146D8
:100C30000020102903D14FF02042506F01E05E4A9E
:100C40001068704710B5F2B1102807D14FF020435B
:100C50005B6E0B434FF02044636632E0B0F5807F5B
:100C600008D1564B1B6843EA01034FF02044C4F8F7
:100C7000843026E0524B1B6843EA01034FF02044C6
:100C8000C4F8A4301DE0102807D14FF020435B6E5C
:100C90008B434FF02044636613E0B0F5807F08D1AA
:100CA000464B1B6823EA01034FF02044C4F884300C
:100CB00007E0434B1B6823EA01034FF02044C4F8CC
:100CC000A43010BD10B5024600200023102A03D125
:100CD0004FF02044636E07E0B2F5807F02D1374CBD
:100CE000236801E0364C23680B4201D0012000E06C
:100CF000002010BD102807D14FF02042526E8A43C9
:100D00004FF020435A6613E0B0F5807F08D12B4A9C
:100D1000126822EA01024FF02043C3F8842007E062
:100D2000274A126822EA01024FF02043C3F8A420A8
:100D3000704770B502460020002300240025102AC9
:100D400003D14FF02046736E07E0B2F5807F02D1E9
:100D50001A4E336801E01A4E336803EA010403EACD
:100D6000D10514B10DB1012000E0002070BD1028A4
:100D700008D14FF02042526E22EAD1024FF02043B8
:100D80005A6613E0B0F5807F08D10C4A126822EA57
:100D9000D1024FF02043C3F8842007E0084A1268CC
:100DA00022EAD1024FF02043C3F8A420704700008C
:100DB000BFFF0F00800000A0940000A0840000A0EE
:100DC000A40000A010B50446CA48844208D10121FD
:100DD000042000F027FB0021042000F023FB46E064
:100DE000C548844208D10121082000F01BFB0021E6
:100DF000082000F017FB3AE0C048844208D10121E6
:100E0000102000F00FFB0021102000F00BFB2EE063
:100E1000BB48844208D10121202000F003FB0021BF
:100E2000202000F0FFFA22E0B648844208D10121D8
:100E3000402000F0F7FA0021402000F0F3FA16E01D
:100E4000B148844208D10121802000F0EBFA002152
:100E5000802000F0E7FA0AE0AC48844207D1012183
:100E6000801500F0DFFA0021A01500F0DBFA10BDBC
:100E700010B50121084600F0D5FA0021012000F04C
:100E8000D1FA10BD2DE9F0410246002500260020D0
:100E900000230024002791F803C00CF00F0591F8FF
:100EA00003C01CF0100F03D091F802C04CEA0505F6
:100EB00091F800C0BCF1000F31D0146800202BE085
:100EC0004FF0010C0CFA00F3B1F800C00CEA030675
:100ED0009E4220D183004FF00F0C0CFA03F7BC4365
:100EE00005FA03FC4CEA040491F803C0BCF1280F96
:100EF00006D14FF0010C0CFA00FCC2F814C00AE055
:100F000091F803C0BCF1480F05D14FF0010C0CFA69
:100F100000FCC2F810C0401C0828D1D31460B1F8FE
:100F200000C0BCF1FF0F34DD546800202EE000F15A
:100F3000080C4FF0010808FA0CF3B1F800C00CEAF5
:100F400003069E4221D183004FF00F0C0CFA03F7E9
:100F5000BC4305FA03FC4CEA040491F803C0BCF15D
:100F6000280F05D100F1080C08FA0CF8C2F814801B
:100F700091F803C0BCF1480F07D100F1080C4FF005
:100F8000010808FA0CF8C2F81080401C0828CED3DB
:100F90005460BDE8F0814FF6FF710180022181703D
:100FA0000421C17070470246002093680B4201D0B3
:100FB000012000E0002070470146886880B2704739
:100FC00002460020D3680B4201D0012000E000203F
:100FD00070470146C86880B270470161704741613F
:100FE00070470AB1016100E041617047C16070471C
:100FF0004FF480320A438261816182618269826931
:10100000704702460020424B18684FF68073184024
:1010100040EA021008433E4B186070473D49C861E2
:101020007047F0B50A46002300240021002500F097
:101030000046B6F1004F02D1354EF16901E0344E61
:101040007168C0F3034583B200F44016B6F5401F43
:1010500008D121F070612E4E766826F070662C4F14
:101060007E6012E000F48016B6F5801F06D10326DC
:1010700006FA05F4A14341F0706106E0460D360121
:1010800003FA06F6B14341F0706122B1460D360114
:1010900003FA06F6314300F00046B6F1004F02D1E4
:1010A0001B4EF16101E01A4E7160F0BD30B50022B7
:1010B0008B071C0F0F2303FA04F2154B08338C1017
:1010C00053F824309343124C08348D1044F82530E3
:1010D00023468C1053F824308C07240F00FA04F4B4
:1010E00023430B4C08348D1044F8253030BD0A4999
:1010F0000860704700080140000C014000100140EA
:101100000014014000180140001C01400020014073
:101110000000014000002042DC002042DD48006861
:1011200040F00100DB49086008464068DA490840A1
:10113000D849486008460068D8490840D549086041
:101140000846006820F4802008600846406820F4C3
:10115000FE0048604FF41F0088607047CD49096861
:1011600021F48031CB4A11601146096821F48021B5
:101170001160B0F5803F03D0B0F5802F0ED106E0AE
:10118000C449096841F48031C24A116007E0C1498D
:10119000096841F4A021BF4A116000E000BF00BF10
:1011A000704710B501460022002300204A11012A91
:1011B00002D1B84C236806E0022A02D1B54C236A5A
:1011C00001E0B44C636A01F01F02012494401C4208
:1011D00001D0012000E0002010BD38B500200090B3
:1011E0000024002500BF3120FFF7DBFF05460098F3
:1011F000401C00900098B0F5A06F01D0002DF2D0F7
:101200003120FFF7CEFF08B1012400E00024204682
:1012100038BD014600209F4A106820F0F80040EADF
:10122000C100106070479E49086070470246002068
:10123000984B586820F47C1042EA01031843954B00
:101240005860704796490866704701460020914AE9
:10125000506820F003000843506070478D48406894
:1012600000F00C007047014600208A4A506820F0C8
:10127000F00008435060704701460020854A5068DE
:1012800020F4E06008435060704701460020814A26
:10129000506820F4605040EAC1005060704729B1A6
:1012A0007C4A527A02437B4B5A7204E0794A527A62
:1012B0008243784B5A7270477A49086070470146FA
:1012C0000020744A506820F4404008435060704742
:1012D0000021754A11706F4A82F82010012802D04F
:1012E000042808D103E001216F4A117004E00521B0
:1012F0006D4A117000E000BF00BF70476B49086085
:1013000070476449096A0143624A1162704767493C
:1013100044390860704730B50021002200240023C2
:101320005C4D6D6805F00C0121B1042905D0082938
:1013300023D105E05E4D056022E05D4D05601FE0B4
:10134000544D6D6805F47012524D6D6805F480348B
:10135000022505EB92421CB9564D554305600BE042
:101360004C4D6D6815F4003F03D0524D5543056058
:1013700002E04F4D5543056002E04D4D056000BF52
:1013800000BF444D6D6805F0F00109094A4D6B5CE2
:101390000568DD4045603F4D6D6805F4E061090A70
:1013A000454D6B5C4568DD4085603A4D6D6805F4E0
:1013B0006051C90A404D6B5C4568DD40C560354DE4
:1013C0006D6805F44041890B3C4D6B5CC568B5FB0D
:1013D000F3F5056130BD29B12E4A526902432D4B08
:1013E0005A6104E02B4A526982432A4B5A61704782
:1013F00029B1284A92690243264B9A6104E0254AA2
:1014000092698243234B9A61704729B1214AD2697C
:101410000243204BDA6104E01E4AD26982431D4B2D
:10142000DA61704729B11B4AD2680243194BDA606E
:1014300004E0184AD2688243164BDA60704729B13B
:10144000144A12690243134B1A6104E0114A1269EB
:101450008243104B1A617047144940390860704745
:101460000F49C86470470B49C87170470948406A02
:1014700040F0807007494862704701460020054AE5
:1014800092680A4201D0012000E000207047014923
:1014900088727047001002400000FFF8FFFFF6FE60
:1014A00000004242D80042422010024080044242E2
:1014B00000127A0000093D003C0000204C00002092
:1014C00010B50446BE48844208D101218014FFF7BC
:1014D000A9FF0021A014FFF7A5FF16E0B948844238
:1014E00008D101210014FFF7AAFF00212014FFF703
:1014F000A6FF0AE0B448844207D10121C013FFF7D8
:101500009EFF0021E013FFF79AFF10BD10B50022E7
:10151000028802F441520B884C8823438C88234371
:10152000CC8823430C8923434C8923438C89234350
:10153000CC8923431A430280838B4FF2FF742340EC
:1015400083830B8A038210BD2DE9F04F85B00546D9
:101550000C464FF0000902274FF000084FF0010B36
:101560000026B246A88B4FF240010840A883022013
:101570002884B5F81C90A068022801D100BF38E08B
:10158000A08810B94FF0010B01E04FF0020B8D481D
:10159000854200D100E000BF6846FFF7BCFEDDF8E1
:1015A00000A0E088B0F5007F0AD14FEA1A2000EBD6
:1015B00080004000A168B0FBF1F0401D86B20BE056
:1015C0004FEA4B10BAFBF0F000EB80004000A1683E
:1015D000B0FBF1F0401D86B20A20B6FBF0F606F033
:1015E0000108A6EB0800C0F34F074FF6FF7000EAB2
:1015F0000828022F01DBFF2F02DD02274FF0000831
:10160000E08840EA080038432884A088A18908437C
:10161000618808432188084340F4006040EA0909D2
:10162000A5F81C9005B0BDE8F08F00210180418035
:101630008180C180018141818181C1810721018235
:1016400070470021018041808180C180022181603A
:1016500000218181704721B1028842F0400202805E
:1016600004E002884FF6BF731A400280704721B130
:10167000828B42F48062828304E0828B4FF6FF33D8
:101680001A408283704730B5002400230C110125D5
:10169000A540ABB21AB185881D43858002E08588DC
:1016A0009D43858030BD1AB183880B43838002E05F
:1016B00083888B4383807047818170470146888986
:1016C0007047A1F57E42FF3A04D0028842F480724E
:1016D000028004E002884FF6FF631A4002807047E0
:1016E00021B1828842F00402828004E082884FF6B1
:1016F000FB731A408280704702884FF2FF731A40D2
:10170000028002880A4302807047018841F48051B8
:101710000180704721B1028842F40052028004E047
:1017200002884DF6FF731A4002807047024600207F
:10173000012901D0108B00E0908A70470146088A89
:101740007047B1F5804F04D1028842F48042028094
:1017500004E002884BF6FF731A400280704702468D
:10176000002013890B4201D0012000E000207047C7
:10177000CA4302817047F0B50246002000240023CE
:10178000002501F00F070126BE40B4B20B1101265F
:101790009E40B3B2968806EA03051689264202D017
:1017A0000DB1012000E00020F0BD10B5002201F0D5
:1017B0000F040123A3409AB2D343038110BD00005C
:1017C0000030014000380040003C004010B50446A5
:1017D000FB48844209D101218803FFF723FE002141
:1017E0004FF48040FFF71EFE32E0F648844209D1F4
:1017F00001214804FFF723FE00214FF40030FFF7DA
:101800001EFE25E0F048844209D101218804FFF73B
:1018100016FE00214FF48020FFF711FE18E0EB4880
:10182000844209D10121C804FFF709FE00214FF4C9
:101830000020FFF704FE0BE0E548844208D10121B7
:101840000805FFF7FCFD00214FF48010FFF7F7FDBE
:1018500010BD2DE9F04786B005460E460024A2468D
:1018600000BFA1460027B08900B100BF2F462C8AD7
:101870004CF6FF700440F08804432C82AC894EF68D
:10188000F3100440B0883189084371890843044348
:10189000AC81AC8A4FF6FF400440B0890443AC826F
:1018A00001A8FFF738FDC648874202D1DDF810A035
:1018B00001E0DDF80CA0A88910F4004F08D00AEB75
:1018C000CA0000EB0A1031684900B0FBF1F807E0EC
:1018D0000AEBCA0000EB0A1031688900B0FBF1F88E
:1018E0006420B8FBF0F004012009642101FB108999
:1018F000A88910F4004F08D0322000EBC900B0FBDB
:10190000F1F000F00700044308E0322000EB09107A
:101910006421B0FBF1F000F00F0004432C8106B00D
:10192000BDE8F0874FF41651016000218180C1802D
:1019300001810C21418100218181704710B502464F
:101940000020108A4FF2FF0318400B884C88234375
:101950008C882343CC8823431843108210BD002178
:10196000018041808180C180704721B1828942F429
:101970000052828104E082894DF6FF731A40828111
:101980007047F0B503460024002600250020A1F58D
:1019900010676A3F00D100BF1846C1F3421401F03E
:1019A0001F06012707FA06F5012C01D10C3004E0CF
:1019B000022C01D1103000E014301AB107682F4317
:1019C000076002E00768AF430760F0BD1AB1838A81
:1019D0000B43838202E0838A8B4383827047028AAF
:1019E0004FF6F0731A400282028A0A43028270475D
:1019F00082894FF2FF731A40828182890A43828171
:101A0000704721B1828942F00202828104E082891A
:101A10004FF6FD731A4082817047028A4FF6DF73DA
:101A20001A400282028A0A430282704721B1028A66
:101A300042F48042028204E0028A4BF6FF731A40AD
:101A400002827047C1F3080282807047014688888D
:101A5000C0F308007047818941F00101818170471E
:101A6000028BD2B20283028B42EA012202837047C8
:101A7000028B02F47F420283028B0A430283704787
:101A800021B1828A42F02002828204E0828A4FF6EB
:101A9000DF731A408282704721B1828A42F01002BD
:101AA000828204E0828A4FF6EF731A408282704786
:101AB00021B1828A42F00802828204E0828A4FF6D3
:101AC000F7731A408282704721B1828942F4004242
:101AD000828103E08289C2F30E028281704721B1C4
:101AE000828A42F40062828204E0828A4FF2FF73AB
:101AF0001A4082827047828A4FF6FB731A408282B4
:101B0000828A0A438282704721B1828A42F00202AD
:101B1000828204E0828A4FF6FD731A408282704707
:101B200002460020B1F5007F00D100BF13880B42B0
:101B300001D0012000E00020704701F40072B2F5EE
:101B4000007F00D100BFCA430280704770B50246D3
:101B50000024002300250020A1F510666A3E00D174
:101B600000BFC1F3421501F01F03012606FA03F37B
:101B7000012D02D19689334006E0022D02D1168A4A
:101B8000334001E0968A33400C12012606FA04F431
:101B90001688344013B10CB1012000E0002070BD64
:101BA00010B500220023A1F510646A3C00D100BFEB
:101BB0000A1201249440A3B2DC43048010BD00004B
:101BC000003801400044004000480040004C004004
:101BD000005000400CB50020019000906B48006858
:101BE00040F480306949086000BF6848006800F42C
:101BF000003000900198401C0190009818B901989D
:101C0000B0F5A06FF1D16148006810F4003F02D038
:101C10000120009001E0002000900098012842D1AE
:101C20005B48006840F010005949086008460068A9
:101C300020F0030008600846006840F002000860D9
:101C40005248406851494860084640684860084624
:101C5000406840F4806048600846406820F47C108A
:101C600048600846406840F4D8104860084600685C
:101C700040F08070086000BF4448006810F0007FAA
:101C8000FAD04248406820F00300404948600846C6
:101C9000406840F00200486000BF3C48406800F0E7
:101CA0000C000828F9D10CBD10B5FFF793FF10BD4B
:101CB00010B53648006840F0010034490860084615
:101CC0004068344908403149486008460068324954
:101CD00008402E4908600846006820F4802008600B
:101CE0000846406820F4FE0048604FF41F008860FA
:101CF000FFF7DAFF4FF000602849086010BD10B50B
:101D0000002100200022214B5B6803F00C0121B16F
:101D1000042906D0082928D107E0214B214C236053
:101D200027E01F4B1F4C236023E0184B5B6803F434
:101D30007010164B5B6803F48032022303EB904073
:101D400022B9194B4343174C23600DE00F4B5B68DE
:101D500013F4003F04D0144B4343124C236003E0C0
:101D60000F4B43430F4C236003E00D4B0D4C23609E
:101D700000BF00BF054B5B68C3F303130B4CE15C72
:101D8000084B1B68CB40074C236010BD001002407D
:101D9000002002400000FFF8FFFFF6FE08ED00E023
:101DA00000127A005000002000093D00540000207D
:101DB0007047704770477047014608787047017058
:101DC00070470020704770477047704700B141B9B5
:101DD000AFF22302F74B9A60AFF22903F54AD360C2
:101DE00002E0F44A9060D160704700B141B9AFF2AF
:101DF0003B02F04B1A61AFF24103EE4A536102E03D
:101E0000EC4A10615161704700BFEA4A128812F42F
:101E1000807FFAD000B141B9AFF26302E54B9A611D
:101E2000AFF26503E34AD36102E0E24A9061D16117
:101E3000704700BFDF4A128812F4007FFAD000B169
:101E400041B9AFF28102DB4B9A61AFF28503D94A07
:101E5000D36102E0D74A9061D161704700BFD54A93
:101E6000128812F4007FFAD000B139B9AFF2A7039B
:101E7000D04A1362AFF2AD03536202E0CD4A106262
:101E80005162704710B54FF4385000F0E9FA10F085
:101E9000010F01D0012400E00024204610BD10B540
:101EA00000244FF4385000F0DBFA10F0300F01D06E
:101EB000012400E00024204610BD10B54FF4385036
:101EC00000F0CEFA044624F0800421464FF4385046
:101ED00000F0FEFA4FF4385000F0C2FA044644F025
:101EE000800421464FF4385000F0F2FA10BD70B56E
:101EF000054600244FF4385000F0B2FA044614F0BE
:101F0000400F02D14FF0FF3070BD24F03804012D96
:101F100002D144F0300401E044F0380421464FF48B
:101F2000385000F0D5FAFFF7C8FF4FF4385000F0F2
:101F300097FA0446012D04D114F0300F06D000208A
:101F4000E2E714F0380F01D00020DDE74FF0FF305A
:101F5000DAE770B5044600254FF4385000F080FAF7
:101F60000546C5F38010207005F03800202802D007
:101F7000382803D100BF0120607002E000206070AB
:101F800000BF00BF05F03800102805D0182802D087
:101F9000202804D100BF00BF0120A07002E0002073
:101FA000A07000BF00BF05F03800082805D0182831
:101FB00002D0202804D100BF00BF0120E07002E061
:101FC0000020E07000BF00BF70BD70B50546002462
:101FD0002878012802D144F0400401E024F04004B4
:101FE0006878012802D144F0380412E0E87801282A
:101FF00008D1A878012802D144F0180409E044F07F
:10200000080406E0A878012802D144F0100400E09A
:1020100000BF21464FF4385000F05AFAFFF74DFF49
:1020200070BD70B50026002400254FF4B05000F0BC
:1020300017FA06464FF4C05000F012FA044625463F
:1020400006EB052085B2284670BD70B50446E5B2A2
:10205000261229464FF4B05000F03AFA31464FF4B8
:10206000C05000F035FA70BD70B500260024002580
:102070004FF4A85000F0F4F900F0F0064FF4B85017
:1020800000F0EEF90446254606EB052085B2284609
:1020900070BD70B50446E5B2261205F0F0014FF4AC
:1020A000A85000F015FA31464FF4B85000F010FA7D
:1020B00070BD00B585B0062269464FF4106000F08F
:1020C0003FFA042204A9900100F03AFA042203A97D
:1020D0004FF4A06000F034FA042202A94FF47060BB
:1020E00000F02EFA8021002000F0F2F9002000F02C
:1020F000B7F9062269464FF4106000F065FA042231
:1021000004A9900100F060FA042203A94FF4A06032
:1021100000F05AFA042202A94FF4706000F054FA59
:1021200005B000BD2DE9F04105460E460027FFF73A
:10213000C0FFF5B100BF00240AE0285D384447B273
:10214000102F03DD4FF0FF30BDE8F081601C44B27A
:10215000082CF2DB00240AE0295DA200521C4FF497
:10216000F85303EBC20000F0B3F9601C44B2082C32
:10217000F2DBEEB10027002409E0305D384447B2BD
:10218000102F02DD4FF0FF30DEE7601C44B2082C58
:10219000F3DB00240AE0315DA200521C4FF4F0533F
:1021A00003EBC20000F094F9601C44B2082CF2DB8F
:1021B0000020C9E7640000202DE9FC4106460C46DA
:1021C0000025002000900190102E77D2DFE806F065
:1021D000080B1A161E2226323F5154585C5D616B63
:1021E000FFF767FF6DE01CB1009400980830019084
:1021F000DDE90001FFF796FFBDE8FC812088FFF7CD
:1022000048FF5EE0FFF730FF20805AE02088FFF7AC
:102210001CFF56E0FFF705FF208052E020880112E6
:102220004FF4985000F054F921784FF4A05000F08A
:102230004FF946E04FF4A05000F012F907464FF472
:10224000985000F00DF907EB0020208039E081481C
:10225000807820707F48C07860707E480079A070D8
:102260007C484079E0707B48807920710020607163
:1022700027E0FFF722FE24E02046FFF7A6FE20E03D
:102280002046FFF766FE1CE01BE02078FFF72FFEDC
:10229000B2E7FFF704FEC5B268B2401C01D1401E90
:1022A000AAE725700DE0FFF7EDFDC5B268B2401C4E
:1022B00002D1401EA0E701E0257002E04FF0FF30A0
:1022C0009AE700BF002097E770B504464FF4D85056
:1022D00000F0C6F820704FF4D05000F0C1F8054669
:1022E0004FF4C85000F0BCF805EB0020608070BDD2
:1022F00010B5044621784FF4D85000F0E9F8608812
:1023000001124FF4C85000F0E3F8A1784FF4D05018
:1023100000F0DEF810BD10B5002000F0A1F810BDEF
:1023200070B50446002534F03A0001D0681E70BD37
:10233000002000F095F8054625432946002000F0CE
:10234000C7F80020F3E710B50446062221464FF4F3
:10235000106000F0F5F8042204F10E01900100F085
:10236000EFF8042204F10A014FF4A06000F0E8F84D
:102370000422A11D4FF4706000F0E2F836480078A6
:10238000A07435484178E17481782175C178617510
:1023900032480078A07510BD10B5044606222146CB
:1023A0004FF4106000F010F9042204F10E019001C6
:1023B00000F00AF9042204F10A014FF4A06000F0D1
:1023C00003F90422A11D4FF4706000F0FDF8A07C19
:1023D00021490870E07C4870207D8870607DC8705D
:1023E000A07D1E49087010BD70B505460C46062D2F
:1023F0001CD2DFE805F003070B0F13172046FFF789
:10240000CBFF16E02046FFF79EFF12E02078FFF793
:1024100087FF70BDFFF77FFF20700AE02046FFF7BF
:1024200067FF06E02046FFF74FFF02E04FF0FF3066
:10243000EFE700BF0020ECE770B504464FF43850DA
:1024400000F00EF80546C5F38000E070C5F34000CB
:10245000A07070BD640000208C000020900000205F
:1024600038B50446FE4988688047FD4908698047B9
:1024700000BFFB48006A10B1F948406A70B9F848DB
:10248000C169C4F307408847F548C169C4F3072010
:102490008847E0B2F24AD16988470DE0200C8DF8F8
:1024A0000000200A8DF80100E0B28DF80200EC482F
:1024B0000321426A68469047E94988698047054692
:1024C000E74948698047E649C8688047284638BDDB
:1024D00038B504460D46E24988688047E0490869F6
:1024E000804744F00404DE48406A90B9DC48C16982
:1024F000C4F307408847DA48C169C4F30720884716
:10250000E0B2D74AD1698847D548C169284688478B
:102510000FE0200C8DF80000200A8DF80100E0B2D9
:102520008DF802008DF80350CD480421426A6846B8
:102530009047CB4948698047C949C868804738BD3A
:10254000F8B504460E461746C54988688047C44911
:102550000869804700BFC248006A10B1C048406A9D
:10256000C0B9BF48C169C4F307408847BC48C169C6
:10257000C4F307208847E0B2B94AD16988470025EB
:1025800005E0B749886980477055681C85B2BD422F
:10259000F7DB12E0200C8DF80000200A8DF8010016
:1025A000E0B28DF80200AE480321426A68469047C7
:1025B000AB483946026A30469047A9494869804786
:1025C000A749C8688047F8BDF8B504460E461746C7
:1025D000A34988688047A2490869804744F00404F9
:1025E0009F48406AC0B99E48C169C4F30740884704
:1025F0009B48C169C4F307208847E0B2984AD16973
:102600008847002505E0705D954AD1698847681CB8
:1026100085B2BD42F7DB12E0200C8DF80000200AE5
:102620008DF80100E0B28DF802008D480321426A66
:10263000684690478A483946426A304690478849FA
:10264000486980478649C8688047F8BD70B5044628
:102650000025002600BFA100491C4FF4005202EBE8
:10266000C100FFF7FDFE0646A100491C4FF40052D1
:1026700002EBC10101F58070FFF7F2FE00EB0620CE
:1026800086B2AEB1A100491C4FF4005202EBC1006A
:10269000FFF7E6FE0546A100491C4FF4005202EB8D
:1026A000C10101F58070FFF7DBFE00EB052085B26C
:1026B000B542D0D1284670BD70B50446002500262D
:1026C00000BFA100491C4FF4185202EBC100FFF7F4
:1026D000C7FE0646A100491C4FF4185202EBC10187
:1026E00001F58070FFF7BCFE00EB062086B2AEB1AC
:1026F000A100491C4FF4185202EBC100FFF7B0FED5
:102700000546A100491C4FF4185202EBC10101F526
:102710008070FFF7A5FE00EB052085B2B542D0D151
:10272000284670BD2DE9F04704460F4616460025A1
:10273000A8460EB9BDE8F087A100491C4FF410521D
:1027400002EBC10101F58070FFF78AFE8146A1000E
:10275000491C4FF4105202EBC100FFF781FE09EB58
:10276000002085B22902A000801C01EBC00832467F
:1027700039464046FFF728FFA81985B22912A20062
:10278000521C4FF4105303EBC200FFF7A1FEE9B255
:10279000A200521C4FF4105303EBC20202F58070EA
:1027A000FFF796FE00BFC5E72DE9F04704460F4648
:1027B00016460025A8460EB9BDE8F087A100491CC1
:1027C0004FF4205202EBC10101F58070FFF748FE83
:1027D0008146A100491C4FF4205202EBC100FFF7D3
:1027E0003FFE09EB002085B22902A000C01C01EBCE
:1027F000C008324639464046FFF7A2FEA81985B206
:102800002912A200521C4FF4205303EBC200FFF721
:102810005FFEE9B2A200521C4FF4205303EBC20248
:1028200002F58070FFF754FE00BFC5E72DE9F041C7
:1028300004460E460025A100491C4FF4205202EB2D
:10284000C10101F58070FFF70BFE0746A100491C8E
:102850004FF4205202EBC100FFF702FE02E000003D
:102860006400002007EB002085B2A81985B2291268
:10287000A200521C4FF4205303EBC200FFF728FEC6
:10288000E9B2A200521C4FF4205303EBC20202F53E
:102890008070FFF71DFEBDE8F081000070B50446B2
:1028A0004FF47A7500E06D1E02217248FEF757FF63
:1028B0000028F8D021466F48FEF7FEFE4FF47A75E7
:1028C00000E06D1E01216B48FEF749FF0028F8D09B
:1028D0006848FEF7F3FEC0B270BD70B504464FF411
:1028E0007A7500E06D1E02216348FEF738FF00286C
:1028F000F8D021466048FEF7DFFE4FF47A7500E01D
:102900006D1E01215C48FEF72AFF0028F8D05A48C6
:10291000FEF7D4FEC0B270BD10B504215748FEF7D3
:102920005EFB10BD10B504215448FEF756FB10BDE8
:1029300010B504462046FFF7D0FF10BD10B5FF20AC
:10294000FFF7CBFF10BD00B587B001210420FEF7D3
:102950004FFD01210803FEF74BFD2020ADF81800C4
:1029600003208DF81A0018208DF81B0006A9434893
:10297000FEF788FA8020ADF8180006A93F48FEF758
:1029800081FA4020ADF8180004208DF81B0006A93C
:102990003A48FEF777FA0420ADF8180010208DF8B9
:1029A0001B0006A93548FEF76DFA0120ADF81800A6
:1029B00010208DF81B0006A93048FEF763FA0020AE
:1029C000ADF804004FF48270ADF806000020ADF8B9
:1029D00008000220ADF80A000120ADF80C0040020A
:1029E000ADF80E001820ADF810000020ADF8120070
:1029F0000720ADF8140001A91F48FEF787FD01214B
:102A00001D48FEF728FE07B000BD1FB51C4B0FCBBD
:102A10008DE80F00FFF786FF04211848FEF7DDFA66
:102A200001211648FEF7DBFA1648FDF7B5FE012135
:102A30001248FEF7D2FA1448FDF7AEFEAFF21B11B2
:102A4000AFF22B10FFF7D1F9AFF21B11AFF2131059
:102A5000FFF7EFF969460120FFF7AEFB401C03D1F9
:102A60000AA000F0D4F91FBD42F21070FDF794FEE9
:102A700000BFF8E700380040003001400008014086
:102A8000D0350008D0FB010030E6020057495A4318
:102A900048495020496E697469616C697A6564209F
:102AA0006661696C2E0D0A0008B501210420FEF74D
:102AB0009FFC10208DF803000001ADF800000320FA
:102AC0008DF802006946FE48FEF7DCF908BD00B546
:102AD00085B0FFF7E9FF4FF48071F948FEF77FFA00
:102AE00001218803FEF784FC01210420FEF780FC0D
:102AF00004A8FEF750FA18208DF813004FF4007068
:102B0000ADF8100003208DF8120004A9EC48FEF780
:102B1000B9F904208DF813000002ADF8100003206D
:102B20008DF8120004A9E648FEF7ACF96846FEF7F6
:102B3000F9FE002000906946E248FEF78AFE4FF455
:102B4000D070E04908310880081D008840F020005E
:102B5000091D08800121DB48FEF707FF252000F052
:102B60001F020121914042094FF0E02303EB820252
:102B7000C2F8001100BF05B000BD00BFD1490988EF
:102B800011F0800FFAD0CF49091D0880704710B5A9
:102B900003460C463020FFF7F0FF7820FFF7EDFFEB
:102BA000C3F307320A2A08DA0AB9042C0ADB02F155
:102BB0003001C8B2FFF7E1FF04E002F13701C8B20B
:102BC000FFF7DBFFC3F303220A2A08DA0AB9032C52
:102BD0000ADB02F13001C8B2FFF7CFFF04E002F1D7
:102BE0003701C8B2FFF7C9FFC3F303120A2A08DA94
:102BF0000AB9022C0ADB02F13001C8B2FFF7BDFFAF
:102C000004E002F13701C8B2FFF7B7FF03F00F028B
:102C10000A2A05DA02F13001C8B2FFF7AEFF04E07C
:102C200002F13701C8B2FFF7A8FF10BD30B5054665
:102C30000C462B46A44893FBF0F240115043A3EB03
:102C400040130AB9062C05DB062402F13001C8B294
:102C5000FFF793FF42F2107093FBF0F20011504324
:102C6000A3EB00130AB9052C05DB052402F13001A2
:102C7000C8B2FFF782FF4FF47A7093FBF0F202EBD9
:102C80004200C0EBC210A3EBC0030AB9042C05DB61
:102C9000042402F13001C8B2FFF76FFF642093FBF8
:102CA000F0F202EBC20000EB0210A3EB80030AB9C2
:102CB000032C05DB032402F13001C8B2FFF75DFFEE
:102CC0000A2093FBF0F202EB8200A3EB40030AB967
:102CD000022C05DB022402F13001C8B2FFF74DFFE0
:102CE0001A4602F13001C8B2FFF747FF30BD0FB4FA
:102CF0002DE9F04106AC002500264FF00108002721
:102D00002620FFF73AFF3AE02068405D252831D1C0
:102D10006D1C2068405D302805D16D1C2068405D29
:102D2000A0F130086D1C2068405D782805D1761C24
:102D300054F826004146FFF72AFF2068405D6428CA
:102D400005D1761C54F826004146FFF76FFF206836
:102D5000405D732812D1761C002705E054F8261038
:102D6000C85DFFF70AFF7F1C54F82600C05D0028ED
:102D7000F4D103E02168485DFFF7FFFE6D1C206879
:102D8000405D0028C0D1BDE8F0015DF814FB10B52E
:102D900004464FF480714A48FEF71FF92046FFF7BA
:102DA000ECFE4FF47A70FDF7F7FC4FF48071444865
:102DB000FEF715F910BD70B504460D464FF480714D
:102DC0003F48FEF70AF929462046FFF7E0FE4FF498
:102DD0007A70FDF7E1FC4FF480713948FEF7FFF897
:102DE00070BD70B504460D464FF480713448FEF74F
:102DF000F4F829462046FFF719FF4FF47A70FDF7E3
:102E0000CBFC4FF480712E48FEF7E9F870BD0FB48B
:102E10002DE9F04106AC002500264FF001080027FF
:102E20004FF480712648FEF7D8F82620FFF7A5FE5C
:102E30003AE02068405D252831D16D1C2068405D56
:102E4000302805D16D1C2068405DA0F130086D1C54
:102E50002068405D782805D1761C54F8260041464C
:102E6000FFF795FE2068405D642805D1761C54F874
:102E700026004146FFF7DAFE2068405D732812D134
:102E8000761C002705E054F82610C85DFFF775FE94
:102E90007F1C54F82600C05D0028F4D103E02168AF
:102EA000485DFFF76AFE6D1C2068405D0028C0D1B8
:102EB0004FF47A70FDF770FC4FF48071004805E024
:102EC0000008014000380140A0860100FEF787F8A5
:102ED000BDE8F0015DF814FB00E0401E0028FCD1C5
:102EE000704710B50821F748FEF779F810BD10B506
:102EF0000821F448FEF771F810BD10B58021F148A3
:102F0000FEF76BF810BD10B51021EE48FEF765F81E
:102F100010BD10B52021EB48FEF75FF810BD08B5D5
:102F200001218020FEF764FA10208DF803004FF293
:102F30003F00ADF8000003208DF802006946E2482A
:102F4000FDF7A0FF01210802FEF752FA10208DF8CC
:102F500003000120ADF8000003208DF8020069464F
:102F6000DA48FDF78FFF01212020FEF741FA1020FB
:102F70008DF80300B820ADF8000003208DF80200A2
:102F80006946D048FDF77EFF04208DF803004020FD
:102F9000ADF8000003208DF802006946C948FDF72E
:102FA00071FF01214020FEF723FAFFF7B2FFFFF780
:102FB000AAFFFFF7A2FFFFF79AFF42F21070FFF798
:102FC0008BFFFFF78EFF08BD08B504208DF80300C6
:102FD0004CF20300ADF8000003208DF802006946B2
:102FE000B848FDF74FFF04208DF803004FF4F06060
:102FF000ADF8000003208DF802006946B448FDF7E3
:1030000041FF08BD08B510208DF803004CF2030005
:10301000ADF8000003208DF802006946A948FDF7CD
:1030200031FF10208DF803004FF4F060ADF8000080
:1030300003208DF802006946A548FDF723FF08BD6F
:1030400010B580219F48FDF7CAFF10BD10B52021A3
:103050009C48FDF7C4FF10BD10B510219948FDF73D
:10306000BEFF10BD70B504460D46FFF7CBFF15F04F
:10307000010F05D04FF480419248FDF7AEFF04E008
:103080004FF480418F48FDF7AAFF15F0020F05D0DD
:103090004FF400418B48FDF7A0FF04E04FF40041DE
:1030A0008848FDF79CFF15F0040F04D001218548E6
:1030B000FDF793FF03E001218248FDF790FF15F033
:1030C000080F04D002217F48FDF787FF03E00221AB
:1030D0007C48FDF784FF15F0100F04D080217C4858
:1030E000FDF77BFF03E080217948FDF778FF15F0BD
:1030F000200F05D04FF480717548FDF76EFF04E096
:103100004FF480717248FDF76AFF15F0400F05D04B
:103110004FF400716E48FDF760FF04E04FF400715A
:103120006B48FDF75CFF15F0800F05D04FF4806110
:103130006748FDF752FF04E04FF480616448FDF7F3
:103140004EFF14F0010F04D001215F48FDF745FF49
:1031500003E001215C48FDF742FF14F0020F04D0A8
:1031600002215948FDF739FF03E002215648FDF7D7
:1031700036FF14F0040F04D004215348FDF72DFF4F
:1031800003E004215048FDF72AFF14F0080F04D093
:1031900008214D48FDF721FF03E008214A48FDF7CB
:1031A0001EFF14F0100F04D010214748FDF715FF43
:1031B00003E010214448FDF712FF14F0200F04D063
:1031C00020214148FDF709FF03E020213E48FDF79B
:1031D00006FF14F0400F05D04FF480513A48FDF738
:1031E000FCFE04E04FF480513748FDF7F8FE14F080
:1031F000800F05D04FF400513348FDF7EEFE04E098
:103200004FF400513048FDF7EAFE14F4807F05D0FA
:103210004FF480412C48FDF7E0FE04E04FF480417C
:103220002948FDF7DCFE14F4007F05D04FF400417F
:103230002548FDF7D2FE04E04FF400412248FDF797
:10324000CEFE14F4407F04D001212048FDF7C5FED6
:1032500003E001211D48FDF7C2FEFFF7F1FEFFF775
:10326000F5FE00BF40211748FDF79DFE0028F9D16B
:10327000FFF74FFEFFF741FE70BD70B50446002515
:10328000FFF7A2FE14F0010F04D001210E48FDF754
:10329000A4FE03E001210C48FDF7A1FE14F0020F8B
:1032A00004D002210848FDF798FE03E002210648F9
:1032B000FDF795FE14F0040F0CD004210248FDF731
:1032C0008CFE0BE000140140001C01400020014076
:1032D0000018014004219948FDF781FE14F0080F01
:1032E00004D008219548FDF778FE03E008219348B3
:1032F000FDF775FE14F0100F04D010218F48FDF774
:103300006CFE03E010218D48FDF769FE14F0200FDC
:1033100004D020218948FDF760FE03E02021874882
:10332000FDF75DFE14F0400F05D04FF48051834847
:10333000FDF753FE04E04FF480518048FDF74FFE47
:1033400014F0800F05D04FF400517C48FDF745FE86
:1033500004E04FF400517948FDF741FE14F4807FFA
:1033600005D04FF480417548FDF737FE04E04FF477
:1033700080417248FDF733FE14F4007F05D04FF40E
:1033800000416E48FDF729FE04E04FF400416B4810
:10339000FDF725FE14F4407F04D001216848FDF7B5
:1033A0001CFE03E001216648FDF719FEFFF748FE09
:1033B000FFF752FE00BF40216248FDF7F4FD0028F0
:1033C000F9D14FF480415F48FDF7EDFD05434FF41F
:1033D00000415C48FDF7E7FD45EA4000C5B2012128
:1033E0005848FDF7E0FD45EA8000C5B20221554886
:1033F000FDF7D9FD45EAC000C5B280215248FDF76E
:10340000D2FD45EA0010C5B24FF480714E48FDF779
:10341000CAFD45EA4010C5B24FF400714A48FDF7B5
:10342000C2FD45EA8010C5B24FF480614648FDF701
:10343000BAFD45EAC010C5B2FFF765FDFFF75DFDB7
:10344000284670BD00B597B001214FF4F070FDF72C
:10345000CFFF01210802FDF7BEFFF320ADF8000009
:1034600018208DF8030003208DF8020069463548C6
:10347000FDF708FD4FF4F060ADF8000018208DF85E
:10348000030003208DF8020069462F48FDF7FAFC7F
:103490004FF6FF70ADF8000018208DF803000320F0
:1034A0008DF8020069462548FDF7ECFC0120ADF8D7
:1034B000000018208DF8030003208DF802006946F3
:1034C0001F48FDF7DFFC022001900020029005203C
:1034D000039000200490059006904FF080500790D4
:1034E00000200890099008200A9010200B900020DE
:1034F0000C900E900F9010904FF48050119000207F
:1035000012901390149001A81590169008A8FDF73A
:103510009CF901210020FDF7F9FAFFF7FAFCFFF70B
:10352000F2FCFFF7EAFCFFF7E2FC42F21070FFF753
:10353000D3FCFFF7D6FC17B000BD0000001C014013
:1035400000200140001401400018014070477047FE
:103550007047754600F028F8AE46050069465346A8
:1035600020F00700854618B020B5FCF73DFEBDE809
:1035700020404FF000064FF000074FF000084FF0DA
:10358000000B21F00701AC46ACE8C009ACE8C0096B
:10359000ACE8C009ACE8C0098D4670470446AFF3FB
:1035A00000802046FCF70BFE00487047940900207D
:1035B00001491820ABBEFEE726000200704700005C
:1035C00002020202020202020202020202020202DB
:1035D00002020202020202020202020202020202CB
:1035E0000036000800000020940000006C01000874
:1035F0009436000894000020640F00008801000841
:1036000000000000000000000000000000000000BA
:103610000008DC00ABCDC0A80064FFFFFF00C0A81D
:103620000063000000000100030000000000000033
:10363000000000000000000000000000000000008A
:103640000102030401020304060708090204060834
:1036500000A24A0400000000000000000102030470
:10366000060708090102573535303000B11D000842
:10367000B31D0008B51D0008B71D0008B91D0008DE
:10368000BF1D000800000000000000000000000056
:043690000000000036
:04000005080001CD21
:00000001FF
